:100000000C945D000C9445180C9445180C944518FC
:100010000C9445180C9445180C9445180C944518EC
:100020000C9445180C9445180C9445180C944518DC
:100030000C9445180C9445180C9445180C944518CC
:100040000C9445180C9445180C9445180C944518BC
:100050000C9445180C9445180C9445180C94731680
:100060000C9445180C9445180C9445180C9445189C
:100070000C9445180C9445180C9445180C9445188C
:100080000C9445180C9445180C9445180C9445187C
:100090000C9445180C9445180C9445180C9445186C
:1000A0000C9445180C9445180C9445180C9445185C
:1000B0000C94451801000139800011241FBECFEFB8
:1000C000D8E0DEBFCDBFE4EBF0E040E017C0B59173
:1000D000A59135912591059107FD0CC095918591CC
:1000E000EF01F92FE82F05900D92A217B307D9F76A
:1000F000FE0104C01D92A217B307E1F7E93BF40724
:0E01000031F70E9459070C947F17F894FFCF37
:10010E0041542452430A0D0041542453463D253098
:10011E0032782530327825303278253032782530D5
:05012E0032780A0D000B
:1001330068076C094C836A9074A07AC00080688851
:0601430000846C820081C3
:07014900286E756C6C2900A3
:06015000286E696C290015
:10015600A3EAB0E0E1EBF0E00C94DB154C015901A9
:10016600C756DF4F488359836A83C959D040212C2B
:10017600312C6E012BE8C20ED11C85E2782E2601A9
:1001860030E8632ECE018D569F4FC456DF4F9983BC
:100196008883CC59D0409C0140E8CF55DF4F288357
:1001A60039834A83C15AD040C756DF4F4881C9595F
:1001B600D040C656DF4F5881CA59D040C556DF4F8A
:1001C6006881CB59D040FA01849167FD80818823EC
:1001D60009F4C9C3CF57DF4F19821882C158D040DE
:1001E6008FEF9FEFCD57DF4F99838883C358D04059
:1001F600CB57DF4F19821882C558D040A1E0B0E036
:10020600AC0FBD1FC957DF4FB983A883C758D0406D
:10021600E0E8F0E0C757DF4FF983E883C958D040DC
:10022600CA01A62FE12CF12CFC012491A7FD208107
:1002360021111BC0E114F10401F19701C4010E94D0
:100246007D14C756DF4F88819981AA81C959D0404C
:100256008E0D9F1DA11DF7FCAA95C756DF4F8883FB
:100266009983AA83C959D04008C00196A11D253299
:1002760009F3FFEFEF1AFF0AD7CFC756DF4F888182
:100286009981AA81C959D040FC012491A7FD2081FA
:10029600253209F056C39C014A2F2F5F3F4F4F4F1F
:1002A600C256DF4F288339834A83CE59D040C7567A
:1002B600DF4F288339834A83C959D040C756DF4F59
:1002C60088819981AA81C959D040FC012491A7FD52
:1002D60020812B3241F4CF57DF4F28813981C15815
:1002E600D04024600BC02C32CCF02D3259F5CF57BC
:1002F600DF4F28813981C158D0402160CF57DF4F69
:1003060039832883C158D0400196A11DC756DF4FB7
:1003160088839983AA83C959D040D0CF203241F42B
:10032600CF57DF4F28813981C158D0402860E6CFAA
:10033600233291F4CF57DF4F28813981C158D040FD
:100346002061DCCF203341F4CF57DF4F288139813C
:10035600C158D0402260D2CF2A3299F50196A11D0C
:10036600C756DF4F88839983AA83C959D040D501E0
:10037600ED91FC911197CF0102968D939C9380810C
:100386009181CB57DF4F99838883C558D04097FF1B
:100396003EC0CF57DF4F28813981C158D040B1E0E8
:1003A6002B27CF57DF4F39832883C158D0409195EB
:1003B60081959109CB57DF4F99838883C558D040E3
:1003C60026C0BC018A2F0E94F813CB57DF4F9983B2
:1003D6008883C558D040C756DF4F288139814A8166
:1003E600C959D040F901849147FD8081082E000C3F
:1003F600990BC0970A9758F42F5F3F4F4F4FC75638
:10040600DF4F288339834A83C959D040E4CFCF5779
:10041600DF4F88819981C158D04080FF07C08D7F0A
:10042600CF57DF4F99838883C158D040C756DF4FD7
:1004360088819981AA81C959D040FC012491A7FDE0
:1004460020812E3209F058C0CD57DF4F198218820D
:10045600C358D0409C014A2F2F5F3F4F4F4FC7567E
:10046600DF4F288339834A83C959D040F901549113
:1004760047FD50815A32D1F40296A11DC756DF4F6F
:1004860088839983AA83C959D040D501ED91FC91FF
:100496001197CF0102968D939C9380819181CD57C0
:1004A600DF4F99838883C358D04026C0842FB90173
:1004B6000E94F813CD57DF4F99838883C358D040E5
:1004C600C756DF4F288139814A81C959D040F90181
:1004D600849147FD8081082E000C990BC0970A97DE
:1004E60058F42F5F3F4F4F4FC756DF4F288339834E
:1004F6004A83C959D040E4CFCE0187569F4F0E9408
:100506006013182FC756DF4F2881C959D040C656E9
:10051600DF4F8881CA59D040C556DF4F9881CB59E5
:10052600D040E22FF82F849197FD8081082E000C91
:10053600990B0E94F6178936910509F45AC0B4F44E
:100546008336910509F466C144F48532910509F4B0
:10055600A1C18136910529F1B3C18436910509F40B
:1005660048C0883691050CF42DC1AAC18037910583
:1005760009F4CBC04CF48E36910509F419C18F36B7
:10058600910509F47CC09CC18537910509F454C0D6
:100596008837910509F496C08337910509F090C113
:1005A60058C1612F70E0A501C6010E949D15892BD7
:1005B60009F4B7C1C756DF4F88819981AA81C95905
:1005C600D0409C014A2F2F5F3F4F4F4FC756DF4FFA
:1005D600288339834A83C959D040FC012491A7FD59
:1005E6002081A601BE016F577F4FC4010E944218A9
:1005F60095C1612F70E0950141E050E0C6010E946F
:10060600B50D892B09F48DC1C756DF4F88819981B5
:10061600AA81C959D0400196A11DC756DF4F8883CC
:100626009983AA83C959D040A601BE016F577F4F4F
:10063600C4010E94F60C72C1612F70E0950140E082
:1006460050E0C6010E94B50D892B09F46AC1C75650
:10065600DF4F88819981AA81C959D0400196A11D91
:10066600C756DF4F88839983AA83C959D040A6010C
:10067600BE016F577F4FC4010E9415124FC1612FF3
:1006860070E0950140E050E0C6010E94B50D892B4F
:1006960009F447C1C756DF4F88819981AA81C95994
:1006A600D0400196A11DC756DF4F88839983AA8340
:1006B600C959D040A601BE016F577F4FC4010E94A1
:1006C600DF102CC1612F70E0950140E050E0C601BB
:1006D6000E94B50D892B09F424C1C756DF4F8881C6
:1006E6009981AA81C959D0409C014A2F2F5F3F4F5B
:1006F6004F4FC756DF4F288339834A83C959D040A5
:10070600FC012491A7FD20814BC0950140E050E0FB
:1007160060EF70E0C6010E94B50D892B09F401C196
:10072600C756DF4F88819981AA81C959D040019661
:10073600A11DC756DF4F88839983AA83C959D04024
:1007460086E020E531E040E0F901DE01AD56BF4F1D
:10075600742F0E945017D6012C9111963C91119737
:1007660012964C91129713965C91139714966C916E
:10077600149715967C91159716968C911697179641
:100786009C91A0E00E945D1751F400E010E0CF5567
:10079600DF4F288139814A81C15AD040B9C028E744
:1007A600A601BE016F577F4FC4010E94AC08B6C0B8
:1007B600612F70E09501A1014E0D5F1DC6010E94DB
:1007C6000910AFC0612F70E0A501C6010E949D15FA
:1007D600892B09F4A6C0C756DF4F88819981AA8163
:1007E600C959D0409C014A2F2F5F3F4F4F4FC756E4
:1007F600DF4F288339834A83C959D040FC012491AD
:10080600A7FD2081A601BE016F577F4FC4010E943C
:10081600421884C0103809F084C0C756DF4F88815B
:100826009981AA81C959D0400196A11DC756DF4FAB
:1008360088839983AA83C959D040D501ED91FC914B
:100846001197CF0102968D939C938081F601808348
:100856005BC0103809F065C0C756DF4F88819981A3
:10086600AA81C959D0400196A11DC756DF4F88837A
:100876009983AA83C959D040D501ED91FC9111976E
:10088600CF0103968D939C9320813181428100E0B4
:1008960010E03EC0103809F044C0C756DF4F8881CB
:1008A6009981AA81C959D0400196A11DC756DF4F2B
:1008B60088839983AA83C959D040F601708224C0DF
:1008C600D6017C92C256DF4F288139814A81CE59A2
:1008D600D040C756DF4F288339834A83C959D04051
:1008E600CF57DF4F19821882C158D040CB57DF4F00
:1008F60019821882C558D0408FEF9FEFCD57DF4F32
:1009060099838883C358D04001E010E0462D9201B8
:10091600BE016F577F4FC4010E94B0118E0D9F1DFF
:1009260011C0C756DF4F88819981AA81C959D04025
:100936000196A11DC756DF4F88839983AA83C9599B
:10094600D040C7017101E80EF91EE214F3044CF41D
:100956008FE490E090933301809332018FEF9FEF05
:1009660003C0170121CCC101CD55DF4FE2E10C9444
:02097600F71573
:100978002F923F924F925F926F927F928F929F92A7
:10098800AF92BF92CF92DF92EF92FF920F931F9395
:10099800CF93DF93CDB7DEB766970FB6F894DEBF77
:1009A8000FBECDBF0E94DE178CEE0E948A1787EF1C
:1009B8000E948A170E94DE178DEE0E948A170E94F5
:1009C8009417C82ED12CE12CF12C0B2EBCE0CC0CAA
:1009D800DD1CEE1CFF1CBA95D1F7B02D0E949417B0
:1009E80090E0A0E0B0E0880F991FAA1FBB1F880FF6
:1009F800991FAA1FBB1F880F991FAA1FBB1F880F0B
:100A0800991FAA1FBB1FC82AD92AEA2AFB2A0E94B3
:100A18009E1782958F70A7019601282B2F87388BF8
:100A2800498B5A8B0E94331880912E0190912F0187
:100A3800A0913001B09131016C017D01FF0CCC080F
:100A4800DC2C7601282F392F4A2F5B2F6C2D7C2D1B
:100A58008C2D9C2D345F4140510961097109810930
:100A6800910929833A83442E552E662E772E282EF7
:100A7800392EA22EB32EC42ED52EE62EF72E082FF1
:100A8800192F0E9410132B833C834D835E836F8341
:100A9800788789879A87B0902B01A0902A011B2D0F
:100AA800110F110BC12ED12EE12EF12E012F0E9414
:100AB80010132B873C874D875E87862E972E8C8B4D
:100AC8009B8BB0901001A0900F011B2D110F110BE3
:100AD800C12ED12EE12EF12E012F29813A81442DEC
:100AE800552D662D772D822D932D0E94101301E12F
:100AF8000E941216A22EB32EC42ED52EE62EF72E45
:100B0800082F192F2B853C854D855E85682D792DFD
:100B18008C899B890E94BA17822E932E4C875B87FB
:100B2800B62FA72FF82FE92F30910C0120910B0138
:100B3800932F990F990B492F592F692F792F892FA7
:100B480003E20E941216A22EB32EC42ED52EE62E34
:100B5800F72E082F192F282D392D4C855B856B2FE3
:100B68007A2F8F2F9E2F0E94BA172B873C874D878D
:100B78005E876B8B7C8B8D8B9E8BB0902001A090B9
:100B88001F011B2D110F110BC12ED12EE12EF12E9D
:100B9800012F2B813C814D815E816F81788589850C
:100BA8009A850E94101308E00E94BD152B833C8390
:100BB8004D835E83862E972E88879F83B0900A0187
:100BC800A09009011B2D110F110BC12ED12EE12E62
:100BD800F12E012F29813A81442D552D662D772D2F
:100BE800822D932D0E9410130CE00E941216A22E43
:100BF800B32EC42ED52EE62EF72E082F192F2B81B3
:100C08003C814D815E81682D792D88859F810E9468
:100C1800BA1770588F4F9F4FE0911D01F0911E0138
:100C28001F01AE2EB32CC12CD12CE12CF12C00E0ED
:100C380010E00E94101301E20E94BD15422E532EAF
:100C4800642E752E862E972E8A839983A0E00E94A3
:100C58005D1709F40EC180E090E0A0E1B0E02F85B7
:100C6800388949895A89821B930BA40BB50B6C01EF
:100C78007D01FF0CCC08DC2C7601282F392F4A2F58
:100C88005B2F6C2D7C2D8C2D9C2D0FE10E94121654
:100C9800AB84BC84CD84DE84EB88FC880D891E89F6
:100CA8000E94C3170F2EF5E3AF2EF02D0F2EFCE098
:100CB800BF2EF02DC12CD12CE12CF12C00E010E03E
:100CC8000E941013A42CB52CC62CD72CE82CF92C78
:100CD8000A8119810E94B3142C873B8749835A8360
:100CE8006B837C838D839E83F0912701A0912601DD
:100CF800EF2FEE0FEE0B0DE00E94BD15222E332EC6
:100D0800442E552E662E772E882E992EA22EB32E7F
:100D1800C42ED52EE62EF72E082F192F2A2F3F2F57
:100D28004E2F5E2F6E2F7E2F8E2F9E2F0E94101318
:100D3800A22EB32EC42ED52EE62EF72E082F192F4D
:100D4800222D332D442D552D662D772D882D992D47
:100D58000E94101309E10E94BD15522E432E342E15
:100D6800252E6F83788789879A87B0902201A09073
:100D780021011B2D110F110BC12ED12EE12EF12EA9
:100D8800012F2C853B8549815A816B817C818D811E
:100D98009E810E94101303E10E94BD15622E732EDE
:100DA800842E952EB62FA72FF82FE92F2C853B855B
:100DB80049815A816B817C818D819E81A52CB42CBF
:100DC800C32CD22CEF80F88409851A850E94BA17A3
:100DD800A22EB32EC42ED52EE62EF72E082F192FAD
:100DE800262D372D482D592D6B2F7A2F8F2F9E2F7B
:100DF8000E94BA1708E00E94BD15822E932E4A83DE
:100E08005983B62FA72FF82FE92F30910101209190
:100E18000001932F990F990B492F592F692F792F7B
:100E2800892F04E00E941216A22EB32EC42ED52EAE
:100E3800E62EF72E082F192F282D392D4A81598192
:100E48006B2F7A2F8F2F9E2F0E94BA17022F132FE6
:100E5800242F352FD901C801BB2324F481509F4F7B
:100E6800AF4FBF4F692F7A2F8B2F992787FD9A9500
:100E780003C060E070E0CB0166960FB6F894DEBF61
:100E88000FBECDBFDF91CF911F910F91FF90EF90D3
:100E9800DF90CF90BF90AF909F908F907F906F9092
:0A0EA8005F904F903F902F90089547
:100EB200CF93DF93CDB7DEB7CC54D1090FB6F894F8
:100EC200DEBF0FBECDBFF8948AB184608AB98BB100
:100ED2008B7F8BB985E090E00E9469170E94A8176A
:100EE2000E94B5160E9424172FE986E891E021504E
:100EF20080409040E1F700C0000078943E01ADE0F0
:100F02006A0E711C28E030E04EE051E060E0C3015F
:100F12000E942B16B0E88B2E882DB3010E948916F1
:100F2200AE01475F5F4FBE016B5F7F4FCE010196FF
:100F32000E941115E7EAF1E63197F1F700C00000CF
:100F4200A980BA80CB80DC8020E030E0A901C60114
:100F5200B5010E942E188823F4F010923601C601C2
:100F6200B5010E940C186093380170E080E090E0B7
:100F72000E9442149B01AC01C601B5010E940518F2
:100F820020E030E040E251E40E943B180E94E2146B
:100F92006093370122C081E080933601D7FAD09462
:100FA200D7F8D094C601B5010E94E21460933801CB
:100FB20070E080E090E00E9442149B01AC01C60107
:100FC200B5010E94051820E030E040E251E40E94A1
:100FD2003B180E94E2146093370189859A85AB859C
:100FE200BC8580339547A105B10544F480E395E7BC
:100FF200A0E0B0E089879A87AB87BC8789859A850C
:10100200AB85BC85813B9D4AA140B10544F080EB94
:101012009DEAA1E0B0E089879A87AB87BC87898582
:101022009A85AB85BC859C01AD01205335474109AA
:101032005109AFEFB3E00E94741720E838E341E0B2
:1010420050E00E945C1659016A01309335012093E9
:10105200340120E030E040E251E46D817E818F81F5
:1010620098850E943B180E94E214693E83E078074B
:1010720010F068EE73E001E111E0D8013C9180913B
:101082003801382B3C93E0913701B0E1EB9FF0013E
:1010920011248091360180FBEE24E0F8F12CC70187
:1010A20082959295907F9827807F9827E82BD80188
:1010B2001196EC931197C50196958795969587950C
:1010C20012968C931297AB01529542954F70452719
:1010D2005F704527AA0CAA0CAA0CAA0CAA0CAA0C8F
:1010E2004F732A2D242B13962C9313976295607FAE
:1010F20014966C931F926F931F922F931F928F934C
:101102001F92EF931F923F9386E191E0A0E0AF938D
:101112009F938F931F9280E48F93CE010D969F939E
:101122008F930E94CA16882DB3010E9489168CE003
:10113200F80111928A95E9F7FFE32DE083E0F1507F
:1011420020408040E1F700C000000FB6F894DEBFF7
:061152000FBECDBFD3CE9D
:10115800A4E1B0E0E2EBF8E00C94DB1598878F830C
:101168007A8369835C8B4B8B122FDB011296ED918E
:10117800FC91139714962D913C9115973E832D83DE
:10118800ED90FC90119716962D903C901797F7FDCF
:1011980003C0E894E1F802C0E1E0F0E0C701807123
:1011A80099279A878987E4FE1FC0AB89BC892C914F
:1011B80011963C91119712964C91129713965C9147
:1011C800139714966C91149715967C91159716960B
:1011D8008C91169717969C91A0E00E945D1721F0BC
:1011E8008D819E81029702C08D819E819701287012
:1011F80033273C872B87E3FC0197AB89BC894C904C
:1012080011965C90119712966C90129713967C9099
:10121800139714968C90149715969C90159716967C
:10122800AC9016971796BC90A981BA811896CD9064
:10123800DC901997B1E0CB1AD108D101AC0DBD1DD6
:101248001C929C838B839F01281B390B3E872D871B
:10125800C70182709927988B8F87812F012E000CE8
:10126800990BDC01A154B109BA8BA98B32E0C316E2
:10127800D10434F489859A85892B09F04CC073C050
:101288009201A301B401C501A0E00E945D1781F19C
:10129800B1E0CB1AD108C2018F7099278A30910525
:1012A80014F4C09602C0895A9F4FE989FA897A973F
:1012B80048F49C012062215631092A31310510F485
:1012C8000E94D517F101EC0DFD1D80832B813C8117
:1012D800215031093C832B839201A301B401C5013C
:1012E80004E00E94BF1529013A014B015C01BECF01
:1012F8008D859E85AB81BC818A0F9B1F18161906A8
:101308003CF21A161B060CF0B5CFEF85F889EF2BC7
:1013180009F0BECFAFCFAB89BC892C9111963C9117
:10132800119712964C91129713965C9113971496F5
:101338006C91149715967C91159716968C91169723
:1013480017969C91A0E00E945D1769F0F101EC0DE1
:10135800FD1D31971083B2E0CB1AD108F101EC0DD5
:10136800FD1D80E38083EB85FC85EF2B41F0F1E0E8
:10137800CF1AD108F101EC0DFD1D80E28083A9810F
:10138800BA8118962D913C911997215031092C1941
:101398003D09C20CD31CA60160E80D811E818F8116
:1013A80098850E94130F9C01EF81F88580819181B7
:1013B80090FF09C0A981BA8112968D919C911397CB
:1013C800821793070CF4C9016496E2E10C94F715AF
:1013D8004F925F926F927F928F929F92AF92BF923D
:1013E800CF92DF92EF92FF920E94DE178CEE0E945E
:1013F8008A178DEF0E948A170E94DE178DEE0E94D1
:101408008A170E949417C82ED12CE12CF12CFE2C9F
:10141800ED2CDC2CCC240E949E17C82A0E9433187D
:1014280080902E0190902F01A0903001B090310152
:101438002CE2921A21E0A20AB1080B2EBEE0CC0CD5
:10144800DD1CEE1CFF1CBA95D1F7B02D809104016C
:1014580090910501092E000CAA0BBB0B072E74E115
:10146800880F991FAA1FBB1F7A95D1F7702DC81A2C
:10147800D90AEA0AFB0AA0912301B0912401A50127
:1014880094010E94EE17C61AD70AE80AF90A30E44E
:10149800D30EE11CF11C0B2EBFE0F594E794D79412
:1014A800C794BA95D1F7B02DA0910D01B0910E0156
:1014B800A50194010E94EE172B013C01032E3AE08E
:1014C80075946794579447943A95D1F7302DA09125
:1014D8002501B0E00E947417DC01CB01072E7BE0E8
:1014E800B595A795979587957A95D1F7702DBC01F5
:1014F800CD0170588F4F9F4FA30192010E9404178E
:10150800DC01CB01072E7AE0B595A79597958795CD
:101518007A95D1F7702D9C01AD01405E5F4FA09187
:101528002C01B0912D010E94EE17DC01CB01905ED9
:10153800AF4FBF4FBC01CD01052E5EE09595879555
:10154800779567955A95D1F7502DA70196010E9476
:1015580004176B017C01052E5FE0959587957795BB
:1015680067955A95D1F7502D9B01AC010E9404173D
:101578009B01AC01689416F85595479537952795C2
:101588001694D1F7A0910801B0E00E947417DC010D
:10159800CB01689413F8B595A795979587951694F8
:1015A800D1F7A7019601281B390B4A0B5B0BDA010F
:1015B800C9011AF480E090E0DC0181309105A105B1
:1015C80039E1B30724F080E090E0A0E0B9E1BC0184
:1015D800CD01052E5CE095958795779567955A9589
:1015E800D1F7502D0E94421420E030E040E85AE341
:1015F8000E943B18FF90EF90DF90CF90BF90AF9084
:0E1608009F908F907F906F905F904F9008950D
:101616001F93CF93DF930E94DE178CEE0E948A17EA
:1016260088E80E948A170E94DE178DEE0E948A17AC
:101636000E949417C82F0E94941790E0982F88272D
:101646008C2B90930301809302010E949417C82F5C
:101656000E94941790E0982F88278C2B909307016F
:10166600809306010E949417C82F0E94941790E059
:10167600982F88278C2B90932901809328010E940C
:101686009417C82F0E94941790E0982F88278C2BC8
:1016960090931E0180931D010E949417C82F0E94EB
:1016A600941790E0982F88278C2B90930A018093AB
:1016B60009010E949417C82F0E94941790E0982F52
:1016C60088278C2B9093200180931F010E949417EA
:1016D600C82F0E94941790E0982F88278C2B909300
:1016E6000C0180930B010E949417C82F0E94941737
:1016F60090E0982F88278C2B9093100180930F01F0
:101706000E949417C82F0E94941790E0982F88275C
:101716008C2B90932B0180932A010E949417C82F3B
:101726000E94941790E0982F88278C2B90930101A4
:10173600809300010E949417C82F0E94941790E08E
:10174600982F88278C2B90932201809321010E9449
:101756009417C82F0E94941790E0982F88278C2BF7
:1017660090932701809326010E9433180E94DE176A
:101776008CEE0E948A1781EA0E948A170E94DE1761
:101786008DEE0E948A170E949417809308010E948A
:1017960033180E94DE178CEE0E948A1781EE0E9493
:1017A6008A170E94DE178DEE0E948A170E949417F0
:1017B600C82F0E94941790E0982F88278C2B90931F
:1017C6002D0180932C010E949417809325010E947D
:1017D6009417C82F0E949417182F0E949E17D82F6F
:1017E6000E94331820E1C29FC0011124212F2F70BF
:1017F600822B90930501809304012D2F30E0C901BF
:1018060082959295907F9827807F982712951F70D2
:10181600812B909324018093230130930E01209312
:0A1826000D01DF91CF911F9108958D
:101830004F925F926F927F928F929F92AF92BF92E0
:10184000CF92DF92EF92FF920E94DE178CEE0E9401
:101850008A178AEF0E948A170E94DE178DEE0E9477
:101860008A170E949417C82ED12CE12CF12C0B2E34
:10187000BCE0CC0CDD1CEE1CFF1CBA95D1F7B02DE2
:101880000E94941790E0A0E0B0E0880F991FAA1F73
:10189000BB1F880F991FAA1FBB1F880F991FAA1F64
:1018A000BB1F880F991FAA1FBB1FC82AD92AEA2A63
:1018B000FB2A0E949E1782958F70C82A0E943318B7
:1018C000B701A601689412F87595679557954795E5
:1018D0001694D1F74090020150900301612C712CB5
:1018E000D301C201880F991FAA1FBB1F9A01AB0128
:1018F000281B390B4A0B5B0BA0910601B091070125
:101900000E94EE174B015C01072E7BE0B594A79473
:10191000979487947A95D1F7702DD701C601689472
:1019200013F8B595A795979587951694D1F7BC01AF
:10193000CD0164197509860997099B01AC010E94C4
:1019400004179B01AC01012E1CE055954795379576
:1019500027951A95D1F7102DA0912801B091290152
:101960000E94EE17DC01CB01072E7EE0B595A7950E
:10197000979587957A95D1F7702D880D991DAA1D99
:10198000BB1D80932E0190932F01A0933001B09343
:1019900031016C017D01CC0CDD1CEE1CFF1CCC0C5C
:1019A000DD1CEE1CFF1C8C0D9D1DAE1DBF1D805847
:1019B0009F4FAF4FBF4F692F7A2F8B2F992787FDEE
:1019C0009A950E94421420E030E048EC52E40E94D4
:1019D0003718FF90EF90DF90CF90BF90AF909F901F
:0C19E0008F907F906F905F904F90089563
:1019EC00ADE0B0E0ECEFFCE00C94DB159A87898756
:1019FC007C836B83FA01DB011296CD90DC901397FC
:101A0C0014968D919C9115979E838D83ED90FC90EF
:101A1C001197FA82E98216960D90BC91A02DB88789
:101A2C00AF832080318042805380648075808680B3
:101A3C0097808101B42DF52DE62D7B868C869D86B5
:101A4C009101A201B301C401A0E00E945D174CF406
:101A5C000E9414178901B42FF52FE62F7B878C87F2
:101A6C009D87D7FC04C0E894E1F8FA82E9829101E1
:101A7C00A201B301C401A0E0ED80FE800E945D17BD
:101A8C001CF0898182FF04C081E0E81AF10805C0CE
:101A9C0083FF03C091E0E91AF108CE0101965C01C5
:101AAC008AE0C82ED12C2B2F3F2F4E2F5B856C85B7
:101ABC007D858B819C810E946E0EFC019101A2019F
:101ACC00B301C401A0E00E945D171CF0898182FF64
:101ADC0012C031970F8118850E0F1F1F9101A201A3
:101AEC00B301C401A0E00E945D1714F08BE201C0A9
:101AFC008DE2D80108C083FF07C03197AF81B8854C
:101B0C00AE0FBF1F80E28C93E980FA80AB81BC8161
:101B1C0018962D913C911997215031092E1B3F0B92
:101B2C008F819885E80FF91FAF0160E80D811E8148
:101B3C0089859A850E94130F9C01A985BA858D9180
:101B4C009C9190FF07C0EB81FC818281938182176D
:0E1B5C0093070CF4C9012D96E2E10C94F715E5
:101B6A000F931F93CF93DF93FC01D9016838710556
:101B7A0031F194F461387105B1F12CF460387105D2
:101B8A0009F478C09FC06238710509F459C06438F5
:101B9A00710509F46FC096C0603A710509F448C02E
:101BAA002CF46039710509F44BC08CC0603C710596
:101BBA0009F476C0603F710509F472C083C0CD9103
:101BCA00DC911197CE0102968D939C93452B39F0A7
:101BDA009881892F880F880B908381835BC08881C5
:101BEA008083118268C0CD91DC911197CE01049651
:101BFA008D939C93452B99F088819981AA81BB8109
:101C0A00AC01BD01770F440B542FBA018083918335
:101C1A00A283B383448345834683478328C00881CC
:101C2A0019812A813B81008311832283338345C032
:101C3A00CD91DC911197CE0102968D939C9323C08E
:101C4A00CD91DC911197CE0108968D939C93788162
:101C5A0069815A814B813C812D819E818F8170835C
:101C6A00618352834383348325839683878381E008
:101C7A0090E02AC0CD91DC911197CE0102968D9306
:101C8A009C93452BA1F099812881892F880F880B75
:101C9A002083918382838383848385838683E6CFAB
:101CAA00CD91DC911197CE0102968D939C93088178
:101CBA00198100831183128213821482158216827B
:101CCA001782D5CF80E090E0DF91CF911F910F91DD
:021CDA0008956B
:101CDC00A2E1B0E0E4E7FEE00C94DB15FC010A8B1A
:101CEC001B832C83732E642E552E462E7D83CC861F
:101CFC00D886BF82AE82868197819B878A87D501E1
:101D0C004D915C91228133818085918501971C01D5
:101D1C0037FF02C021E030E0EA85FB85E80FF91FB0
:101D2C0010824701E1E0F0E0FA83E983C9018E19E2
:101D3C009F099E878D87DA01A270BB27B88BAF876E
:101D4C00B885BB0FBB0BB98B1214130474F0A981AB
:101D5C00BA81AB2B09F05CC0AE81BF818D919C9197
:101D6C0011978F7E8D939C9353C02A893B814C8114
:101D7C00572D662D752D842D9D81A0E00E945D1739
:101D8C00B1F1E1E02E1A3108FC85F987AF2EB88449
:101D9C00C988DC2CEC2CFC2C0C2D1C2D2A893B81AD
:101DAC004C81572D662D752D842D9D810E944217D7
:101DBC00C90129839A83EA85FB85E20DF31D805DB9
:101DCC00808381E0881A91082A893B814C81572DA8
:101DDC00662D752D842D9D810E9444172A8B3B8383
:101DEC004C83752E662E572E482E9D83ADCF8D8538
:101DFC009E85880D991D181619061CF218141904C5
:101E0C000CF0A5CFEF85F889EF2B09F0BACF9FCF57
:0A1E1C00C1016296E2E10C94F71593
:101E26002F923F924F926F927F928F92AF92BF9274
:101E3600CF92DF92EF92FF920F931F93CF93DF9390
:101E4600CDB7DEB766970FB6F894DEBF0FBECDBF2F
:101E56005C013A01862E6901C701817099279C8B26
:101E66008B8BE0FC1DC020173107D4F47801EC18E9
:101E7600FD08FE8AED8AA70191E1E916F10410F04A
:101E860040E150E060E270E0CE0101969A8B898BCA
:101E96000E94CC1789899A891C0120E8422E0BC022
:101EA6009601682DA301C5010E947D14C016D106B6
:101EB600ECF2C60125C090E1E916F10458F020E1E4
:101EC60030E0642DA101C5010E947D1480E1E81A6D
:101ED600F108F1CF2D893E892F70332789899A8998
:101EE600AC0160E8C5010E947D148B899C89892B11
:101EF60031F49601682DA301C5010E947D14C80125
:101F060066960FB6F894DEBF0FBECDBFDF91CF91B8
:101F16001F910F91FF90EF90DF90CF90BF90AF9001
:0E1F26008F907F906F904F903F902F90089576
:101F340010C00E941A1858F00E94131840F029F497
:101F44005F3F29F00C94281851110C9422180C941A
:101F54003F180E94591568F39923B1F3552391F35F
:101F6400951B550BBB27AA2762177307840738F004
:101F74009F5F5F4F220F331F441FAA1FA9F335D061
:101F84000E2E3AF0E0E832D091505040E695001C15
:101F9400CAF72BD0FE2F29D0660F771F881FBB1FCF
:101FA400261737074807AB07B0E809F0BB0B802DAD
:101FB400BF01FF2793585F4F3AF09E3F510578F0D9
:101FC4000C9428180C9422185F3FE4F3983ED4F341
:101FD400869577956795B795F7959F5FC9F7880FAD
:101FE400911D9695879597F90895E1E0660F771FFF
:101FF400881FBB1F621773078407BA0720F0621B90
:0E200400730B840BBA0BEE1F88F7E09508955E
:10201200CF93DF93DC01F90164387105D9F164F4DF
:102022006138710521F16238710509F440C06038E8
:10203200710509F054C02EC060397105C1F184F4F4
:102042006838710509F04BC0C081D181CE0102967A
:1020520091838083E881F981ED93FC9340833CC0B6
:10206200603A7105B9F0603C7105A1F038C0C081D9
:10207200D181CE01029691838083E881F981ED932B
:10208200FC93052E000C660B770B40835183628311
:10209200738322C0C081D181CE0102969183808355
:1020A200E881F981ED93FC935183408315C0C0818F
:1020B200D181CE01029691838083E881F981ED93EB
:1020C200FC9351834083852F880F880B82838383FF
:1020D200848385838683878381E090E002C080E0E9
:0820E20090E0DF91CF91089519
:1020EA000FC00E94131838F00E941A1820F0952386
:1020FA0011F00C9428180C943F1811240C942218EF
:10210A000E94591570F3959FC1F3950F50E0551F22
:10211A00629FF001729FBB27F00DB11D639FAA2732
:10212A00F00DB11DAA1F649F6627B00DA11D661F81
:10213A00829F2227B00DA11D621F739FB00DA11DA2
:10214A00621F839FA00D611D221F749F3327A00D5C
:10215A00611D231F849F600D211D822F762F6A2FF8
:10216A0011249F5750409AF0F1F088234AF0EE0F5D
:10217A00FF1FBB1F661F771F881F91505040A9F78A
:10218A009E3F510580F00C9428180C9422185F3F4A
:10219A00E4F3983ED4F3869577956795B795F795C6
:1021AA00E7959F5FC1F7FE2B880F911D969587953E
:0421BA0097F90895F4
:1021BE00A2E0B0E0E5EEF0E10C94DB151C014B0162
:1021CE00FA01DB0112962D913C91139714964D90C6
:1021DE005C9015978D919C9111979A838983169691
:1021EE006D907C90179737FD03C08D7F9A838983FE
:1021FE0000811181228133814481558166817781ED
:10220E00FE0131965F0188E0C82ED12C7201C40107
:10221E000E946E0E298124FF06C00197F301E80F7C
:10222E00F91F20E32083298123FF06C00197F301C4
:10223E00E80FF91F20E22083E980FA80D401189676
:10224E002D913C91199721503109281B390B860D80
:10225E00971DAC0160E88201C1010E94130F9C0121
:10226E00F1018081918190FF08C0D40112968D9169
:10227E009C911397821793070CF4C9012296E2E101
:04228E000C94F715A0
:1022920011C00E94131838F00E941A1820F039F465
:1022A2009F3F19F426F40C943F180EF4E095E7FBD7
:1022B2000C942818E92F0E94591558F3BA1762078F
:1022C20073078407950720F079F4A6F50C9421187A
:1022D2000EF4E0950B2EBA2FA02D0B01B90190013F
:1022E2000C01CA01A0011124FF27591B99F0593F83
:1022F20050F4503E68F11A16F040A22F232F342FCB
:102302004427585FF3CF469537952795A795F04018
:102312005395C9F77EF41F16BA0B620B730B840B2D
:10232200BAF09150A1F0FF0FBB1F661F771F881FE5
:10233200C2F70EC0BA0F621F731F841F48F487953D
:1023420077956795B795F7959E3F08F0B0CF93952F
:0E235200880F08F09927EE0F9795879508954C
:102360002F923F924F926F927F928F92AF92BF9235
:10237000CF92DF92EF92FF920F931F93CF93DF9351
:10238000CDB7DEB727970FB6F894DEBF0FBECDBF2F
:102390006C017B013901842E980189E4282E81E0AB
:1023A000382E80E0482E87E0F101AE014F5F5F4F8D
:1023B000DA01742D0E945017F70102811381A48065
:1023C000B580E080F18061147104810419F43A0150
:1023D000F0E88F2E2115310529F4882DB3010E94D4
:1023E0009F169C0117FD04C00217130708F49801FB
:1023F0008501682DA301C6010E94130F27960FB611
:10240000F894DEBF0FBECDBFDF91CF911F910F912A
:10241000FF90EF90DF90CF90BF90AF908F907F9024
:0A2420006F904F903F902F900895A9
:10242A00A2E0B0E0EBE1F2E10C94DB153C014B01D8
:10243A00FA01DB0112962D913C91139714964D9057
:10244A005C9015978D919C9111979A838983169622
:10245A002D903C90179737FD03C08D7F9A8389830F
:10246A00008111812281338144815581668177817E
:10247A00FE0131965F018AE0C82ED12C7201C40197
:10248A000E946E0EE980FA80D40118962D913C9133
:10249A00199721503109281B390B820D931DAC0164
:1024AA0060E88201C3010E94130F9C01F30180813D
:1024BA00918190FF08C0D40112968D919C91139737
:1024CA00821793070CF4C9012296E2E10C94F715DE
:1024DA006F927F928F92EF92FF920F931F93CF93F7
:1024EA00DF93CDB7DEB761970FB6F894DEBF0FBEA4
:1024FA00CDBFFE01319651E1DF011D925A95E9F7F0
:10250A00A2E0B1E0BA83A9839C838B8377FF09C0D9
:10251A008FE490E090933301809332018FEF9FEF25
:10252A0019C03901842E7C01615071097F836E8341
:10253A009801682DA301CF010E9444164885598548
:10254A002E813F814217530708F49A01F701E20FDF
:10255A00F31F108261960FB6F894DEBF0FBECDBF8F
:10256A00DF91CF911F910F91FF90EF908F907F9005
:04257A006F900895C1
:10257E0088249924F401E401B0E49F93AA279A15C4
:10258E008B049C04ED05FE05CF05D007A10798F43A
:10259E00AD2FDC2FCF2FFE2FE92D982C892E982FC3
:1025AE00872F762F652F542F432F322F2227B85087
:1025BE0031F7BF9127C01B2EBF91BB27220F331FB0
:1025CE00441F551F661F771F881F991F881C991C53
:1025DE00EE1FFF1FCC1FDD1FAA1FBB1F8A149B04FB
:1025EE00EC05FD05CE05DF05A007B10748F08A18FA
:1025FE009B08EC09FD09CE09DF09A00BB10B216088
:10260E001A94E1F62EF49401AF01BE01CD01000C37
:02261E0008951D
:10262000DF93CF931F930F939A9DF02D219FF00D71
:102630008B9DF00D8A9DE02DF10D039FF00D029F03
:10264000E00DF11D4E9DE00DF11D5E9DF00D4F9DC5
:10265000F00D7F936F93BF92AF925F934F93D5012D
:102660000E9433178B01AC01D7010E943317EB0195
:10267000E80FF91FD6010E94B1172F913F91D601A3
:102680000E943317C60FD71FE81FF91FAF91BF91E4
:102690000E94B1172F913F910E943317C60FD71F89
:1026A000E81FF91FD6010E943317E60FF71F9801A4
:1026B000BE01CF0111240F911F91CF91DF91089599
:1026C000CF92DF92EF92DC0190E0292F30E0220FD1
:1026D000331F6901032E000CEE086E2DA6014D5C20
:1026E0005E4F6F4F6A01E62EFA018491E7FC80810C
:1026F00081110DC02F5F3F4F032E000C440B2D5C4A
:102700003E4F4F4FF901849147FD808124C0CD9009
:10271000DD90EC901297F6014491E7FC4081841320
:1027200015C02F5F3F4F032E000C440B2D5C3E4F16
:102730004F4FF901949147FD90815FEFC51AD50A7B
:10274000E50ACD92DD92EC92129701C09F5F9B301B
:0E27500008F4BBCF892FEF90DF90CF90089553
:10275E000F931F93CF93DF93DB012D913C91119734
:10276E0030FF25C017964D915C91189715962D91B7
:10277E003C9116974217530778F41296ED91FC91FF
:10278E001397808312962D913C9113972F5F3F4F95
:10279E0013963C932E93129717962D913C91189762
:1027AE002F5F3F4F18963C932E93179715C01D968B
:1027BE00ED91FC911E97309719F48FEF9FEF0CC09F
:1027CE008B01EC010995892BC1F7F8018781908562
:1027DE00019690878783CE01DF91CF911F910F9144
:0227EE0008954C
:1027F000CF939B01482FF901849147FD808180325E
:10280000C9F1682F082E000C770B695071096530EB
:10281000710580F18B3249F5A0E0B0E02F5F3F4FAA
:102820004F4F02C0A0E0B0E080E090E0CAE0F901C4
:10283000649147FD6081062E000C770B605371098F
:102840006A30710560F4C89FF001C99FF00D112432
:102850002F5F3F4F4F4FCF01861B970BE8CFAB2B1E
:1028600069F491958195910909C08D32D9F6A1E05D
:10287000B0E0D4CF2F5F3F4F4F4FBDCFCF910895E2
:10288000E89409C097FB3EF490958095709561950A
:102890007F4F8F4F9F4F9923A9F0F92F96E9BB27C0
:1028A0009395F695879577956795B795F111F8CF3C
:1028B000FAF4BB0F11F460FF1BC06F5F7F4F8F4FA7
:1028C0009F4F16C0882311F096E911C0772321F09D
:1028D0009EE8872F762F05C0662371F096E8862F35
:1028E00070E060E02AF09A95660F771F881FDAF78C
:0A28F000880F9695879597F90895D3
:1028FA006F927F928F92CF92DF92EF920F931F93F4
:10290A00CF93DF938C016A01E62EE9013A01862E04
:10291A00620E731E811C37FD8A94C614D704E8041C
:10292A0079F0F6018491E7FC8081B801082E000C49
:10293A00990B0E94AF138FEFC81AD80AE80AEDCF95
:10294A00CE01DF91CF911F910F91EF90DF90CF9041
:08295A008F907F906F900895AB
:10296200689401C0E894F92FF12B12F00C944517EA
:10297200A0E0B0E0EFEBF4E10C94E115092E059430
:1029820022F40E941417112392F4F0E80F26FFEFAD
:10299200E094F09400951095B094C094D094A194D2
:1029A200BF0ACF0ADF0AEF0AFF0A0F0B1F0B0E94B2
:1029B200BF1207FC0E941417CDB7DEB7ECE00C94EF
:0229C200FD1501
:1029C4000E94611588F09F5798F0B92F9927B75145
:1029D400B0F0E1F0660F771F881F991F1AF0BA95BF
:1029E400C9F714C0B13091F00E942118B1E00895E4
:1029F4000C942118672F782F8827B85F39F0B93FD6
:102A0400CCF3869577956795B395D9F73EF4909571
:0E2A14008095709561957F4F8F4F9F4F08956D
:102A2200EF92FF920F931F93CF93DF937C018B0161
:102A3200EA010E94180CF7016083718382839383F9
:102A42000E94EC09F80160837183828393830E9460
:102A5200BC04688379838A839B83DF91CF911F9122
:082A62000F91FF90EF90089521
:102A6A00990F0008550FAA0BE0E8FEEF1616170695
:102A7A00E807F907C0F012161306E407F50798F0FD
:102A8A00621B730B840B950B39F40A2661F0232B16
:102A9A00242B252B21F408950A2609F4A140A69592
:082AAA008FEF811D811D0895CD
:102AB20057FD9058440F551F59F05F3F71F04795ED
:102AC200880F97FB991F61F09F3F79F087950895D2
:102AD200121613061406551FF2CF4695F1DF08C0F1
:102AE200161617061806991FF1CF8695710561050E
:042AF20008940895A7
:102AF600A1E21A2EAA1BBB1BFD010DC0AA1FBB1FFC
:102B0600EE1FFF1FA217B307E407F50720F0A21B6D
:102B1600B30BE40BF50B661F771F881F991F1A94DA
:102B260069F760957095809590959B01AC01BD0104
:042B3600CF0108952E
:102B3A00FA0160387105CCF0623871051CF063380F
:102B4A00710599F4A081B1819D012C5F3F4F3183BA
:102B5A0020834D915D916D917C91FC01408351835D
:102B6A006283738381E090E0089580E090E00895A5
:102B7A0097FB10F8169400080F93083098F0085045
:102B8A00232F342F452F562F672F782F892F902DDB
:102B9A00F4CF0594979587957795679557954795B7
:0C2BAA00379527950A95AAF70F9108951A
:102BB6002F923F924F925F926F927F928F929F9247
:102BC600AF92BF92CF92DF92EF92FF920F931F9335
:102BD600CF93DF93CDB7DEB7CA1BDB0B0FB6F894E6
:082BE600DEBF0FBECDBF099454
:102BEE002A88398848885F846E847D848C849B848F
:102BFE00AA84B984C884DF80EE80FD800C811B819D
:102C0E00AA81B981CE0FD11D0FB6F894DEBF0FBECB
:062C1E00CDBFED01089599
:102C24000F93083090F0982F872F762F652F542F0D
:102C3400432F322F22270850F4CF220F331F441F73
:102C4400551F661F771F881F991F0A95B2F70F91AA
:022C54000895E1
:102C5600CF92DF92EF926A01E62EDC01280F391F30
:102C6600A217B30751F0F6014491E7FC40814D935A
:102C76004FEFC41AD40AE40AF3CFEF90DF90CF9057
:022C86000895AF
:102C8800A2E0B0E0EAE4F6E10C94E9158C013A839D
:102C980029839E012F5F3F4F0E94AB00F8012081DE
:102CA80024FF02C08FEF9FEF2296E4E00C940516F4
:102CB800052E97FB1EF400940E94E61757FD07D0D7
:102CC8000E947B1507FC03D04EF40C94E617509530
:0E2CD8004095309521953F4F4F4F5F4F089527
:102CE6001F920F920FB60F9211248F9300B605FE16
:102CF60004C08BB184608BB903C08BB18B7F8BB959
:0C2D06008F910F900FBE0F901F9018953A
:102D1200CF92DF92EF926B01E82E06C09FEFC91AA5
:102D2200D90AE90A0E94FE17F6018491E7FC808124
:0C2D32008111F4CFEF90DF90CF90089556
:102D3E00CF92DF92EF926B01E82EA82FCB01FC0110
:102D4E002491A7FD2081222319F00196A11DF7CF12
:0C2D5E008C199D09EF90DF90CF90089534
:102D6A00EAE7F0E080818F778083EEE7F0E0808108
:102D7A0081608083EFE7F0E080818360808388E070
:0A2D8A0080BF80B7806180BF08950C
:102D9400A0E0B0E0E0EDF6E10C94E9158E01025FED
:102DA4001F4F2B853C854D8569857A858F81988554
:0A2DB4000E946D12E4E00C94051675
:102DBE00CF93DF93D82FC62F0E94DE178CEE0E9482
:102DCE008A178D2F0E948A178C2F0E948A170E94B5
:082DDE003318DF91CF91089535
:102DE600092E0394000C11F4882352F0BB0F40F413
:102DF600BF2B11F460FF04C06F5F7F4F8F4F9F4F53
:022E060008952D
:102E0800DB018F939F930E947417BF91AF91A29F8C
:102E1800800D911DA39F900DB29F900D11240895D0
:102E28006095709580959095309540955095219531
:102E38003F4F4F4F5F4F6F4F7F4F8F4F9F4F0895BB
:102E480061E082EF0E94DF1667E284EF0E94DF16DE
:0E2E580060EA85EF0E94DF160E940B0B0895C2
:102E6600A29FB001B39FC001A39F700D811D1124C5
:0E2E7600911DB29F700D811D1124911D0895B4
:102E8400689401C0E8948F929F92CF93DF930E943D
:0C2E9400BF12DF91CF919F908F900895A6
:102EA000992777FD05C005900D920197E1F70895E8
:0A2EB00001900D920197E1F70895DB
:102EBA000024A7FD00942A17300540055005600537
:082ECA007005800590050895D4
:102ED2009093C5008093C40088E08093C10086E08F
:062EE2008093C200089578
:102EE8000E943317A59F900DB49F900DA49F800D4D
:062EF800911D1124089554
:102EFE00EC010E944A180E944918CE010E944B18FC
:062F0E00CE010E944718ED
:102F14008093BB0084E88093BC008091BC0088232C
:042F2400E4F7089531
:102F280084EC8093BC008091BC008823E4F78091F6
:042F3800BB0008953D
:102F3C0084E88093BC008091BC008823E4F78091E6
:042F4C00BB00089529
:102F5000E9EBF0E080818C7F808388E48093B80087
:022F60000895D2
:102F62000E943317460F571FC81FD91F08F4319606
:022F72000895C0
:102F74002A0D3B1D4C1D5D1D6E1D7F1D801F911F65
:022F84000895AE
:102F86002A193B094C095D096E097F09800B910BD3
:022F960008959C
:102F9800FC01480F591FE417F50711F06193FBCFA7
:022FA80008958A
:102FAA009C01215631092A31310510F48F75992770
:022FBA00089578
:102FBC0084EA8093BC008091BC008823E4F70895D8
:102FCC0090958095709561957F4F8F4F9F4F089589
:102FDC00B7FF0C9474170E947417821B930B0895FF
:102FEC009C01215431092A31310508F4806208957D
:0E2FFC009091C00095FFFCCF8093C600089511
:0E300A005058BB27AA270E9449110C94F316B8
:0E3018000E94E2146894B1110C9422180895DD
:0E30260000240A9416161706180609060895C7
:0E30340000240A9412161306140605060895C9
:0E304200E894BB2766277727CB0197F90895FE
:0C30500097F99F6780E870E060E0089549
:0A305C000E94351508F48FEF089567
:0830660084E98093BC00089589
:08306E000E949A0F0C94F31666
:083076000E9475100C94F31682
:06307E009FEF80EC0895B5
:0630840080E090E00895D9
:04308A000C940000A2
:04308E000E94850017
:0230920008959F
:0230940008959D
:0230960008959B
:00000001FF
